:400000000080002011000000550A0000550A000080B500AF024A034B1B68136000F04CFDBC760040FA46004010B5054C237833B9044B13B10448AFF300800123237010BD10
:400040003881FF1F00000000E01C0000084B10B51BB108490848AFF300800848036803B910BD074B002BFBD0BDE81040184700BF000000003C81FF1FE01C0000C880FF1F2A
:400080000000000080B500AF01F022F803461A46014B1A7000BF80BDD481FF1F80B500AF00F0A4FF024B01221A7000BF80BD00BFD581FF1F80B400AF0C4B1B6801330B4A7D
:4000C00013600A4B1B68B3F57A7F0AD9084B01221A70084B1B680133064A1360034B00221A6000BFBD4680BC704700BFD881FF1FD681FF1FDC81FF1F80B582B000AF7860B1
:400100007B68002B10D01B4B1B88B3F57A7F0BD2184B1B88C8339AB2164B1A80154B1B88184600F0F9FD21E07B68002B0FD1114B1B88642B0BD80F4B1B8864339AB20D4B23
:400140001A800C4B1B88184600F0E6FD0EE07B68002B0BD1074B1B88C83B9AB2054B1A80044B1B88184600F0D7FD00BF0837BD4680BD00BFCC80FF1F80B582B000AF00F033
:4001800045FF7C4800F000FE7B4800F0D5FE00F02DFF00F01FFF00F023FD784800F07EFE62B6774A7749784801F076F9764800F0CBFF764B68221A70754B1B78002B00F0E9
:4001C0009180734B00221A70724B1B68002B0DD1714B1B68012B09D100F0EEF96D4B1B6801336C4A13606C4B00221A60694B1B68012B0DD1684B1B68012B09D100F0F0F9DE
:40020000644B1B680133634A1360634B00221A60604B1B68022B0DD15F4B1B68012B09D100F0F2F95B4B1B6801335A4A13605A4B00221A60574B1B68032B0DD1564B1B689D
:40024000032B09D100F0F4F9524B1B680133514A1360514B00221A604E4B1B68042B0DD14D4B1B68012B09D100F0A6F9494B1B680133484A1360484B00221A60454B1B6894
:40028000052B0DD1444B1B68012B09D100F0E4F9404B1B6801333F4A13603F4B00221A603C4B1B68062B0DD13B4B1B68012B09D100F0E6F9374B1B680133364A1360364B43
:4002C00000221A60334B1B68072B0BD1324B1B68022B07D100F0E8F92E4B00221A602E4B00221A602D4B1B78002B34D0294B1B68002B07D100F074F9264B02221A60264B42
:4003000000221A60234B1B68032B08D1224B1B68022B04D8204B1B68023B1F4A13601D4B1B68042B07D100F097F91A4B06221A60194B00221A60174B1B68072B08D1164B5F
:400340001B68012B04D8144B1B68023B124A1360124B00221A700D4B1B78002B3FF42CAF0A4B1B78FB71094B00221A70FB792B3B16E000BF850000009D000000B50000001D
:40038000E41C0000541D00005481FF1FD481FF1FD681FF1FE081FF1FDC81FF1FD581FF1F462B00F2B88001A252F823F0DF04000017050000FB0400001705000017050000B2
:4003C000170500001705000017050000170500001705000017050000170500001705000017050000170500001705000017050000170500001705000017050000170500003D
:400400001705000017050000170500001705000017050000170500001705000017050000CF0400001705000017050000170500001705000017050000170500001705000045
:4004400017050000C904000017050000170500001705000017050000170500001705000017050000170500001705000017050000170500001705000017050000170500000B
:40048000170500001705000017050000D704000017050000170500001705000017050000CF0400001705000017050000170500001705000017050000170500001705000006
:4004C00017050000C904000000F084FF28E0154800F03AFE24E0144800F036FE20E0134B1B881A461249134800F0D6FF114800F02BFE0020FFF700FE12E00C4B1B881A46E1
:400500000B490C4800F0C8FF0A4800F01DFE0120FFF7F2FD04E0FB79184600F0FBFD00BF4AE600BF641D0000A41D0000CC80FF1FAC1D00005481FF1F80B582B000AF0346E6
:40054000FB710B46BB7113467B71FB79184600F077FEBB79184600F08DFE7B79184600F0A7FEFB79184600F0FDFEBB79184600F0DBFE7B79184600F0B9FE00BF0837BD4610
:4005800080BD00BF80B582B000AF0346FB710B46BB7113467B71FB79184600F033FEBB79184600F011FE7B79184600F0EFFD00BF0837BD4680BD00BF80B500AF01220121DA
:4005C0000020FFF7B9FF012201210020FFF7DAFF002000F045FC002000F024FC00BF80BD80B500AF012200210020FFF7A5FF012201210020FFF7C6FF002000F031FC00201D
:4006000000F010FC00BF80BD80B500AF002201210120FFF791FF012201210020FFF7B2FF002000F01DFC012000F0FCFB00BF80BD80B500AF012200210120FFF77DFF0122DC
:4006400001210020FFF79EFF002000F009FC002000F0E8FB00BF80BD80B500AF012201210020FFF769FF012200210020FFF78AFF002000F0F5FB002000F0D4FB00BF80BD3C
:4006800080B500AF012201210020FFF755FF002201210120FFF776FF012000F0E1FB002000F0C0FB00BF80BD80B500AF012201210020FFF741FF012200210120FFF762FFE8
:4006C000002000F0CDFB002000F0ACFB00BF80BD80B582B000AF786039603A680021786800F0D1FE00BF0837BD4680BD80B584B000AFF860B9607A607A68B968F86800F092
:40070000B7FE00BF1037BD4680BD00BF80B483B000AF0346FB71FEE780B487B000AF7860396000233B6100237B6127E07B699B007A6813441B68BB60BB68FB73BB6823F0E2
:40074000FF03BB6014E03B695B003A6813441B781A46BB68134419463B695B003A6813445B780B703B6901333B61FB7B013BFB73FB7B002BE7D17B6901337B617B69142B5A
:40078000D4D900BF1C37BD4680BC704780B582B000AF374B19221A80364B18221A70364BEF221A80354B18221A70354B45F6BF521A80344B18221A70334B02221A704FF04E
:4007C000402308221A70314B03221A70304B314A1278D2B21A70304B08221A802F4B41F251221A800023FB7019237B6014E0FB785B00DAB22A4B1B78DBB203F00103DBB224
:400800001343DBB203F00303FB704FF4F07000F0F3FD7B68013B7B607B68002B02D0FB78032BE4D17B68002B02D10320FFF76EFF1C4B4FF480721A801A4B07221A701A4BA4
:4008400000221A70194B48221A70164B00221A70174B02221A70174A164B1B78DBB243F00703DBB2137000BF0837BD4680BD00BF804000408240004084400040864000401F
:40088000884000408A4000400043004000420040A14600400801004922420040204200402542004004400040064000400840004001400040A243004080B483B000AF0B4B17
:4008C0001B78FB710A4AFB7903F00703DBB21370084AFB791B09DBB21370074B44221A7000BF0C37BD4680BC704700BFCF0100496E5800406F5800407658004080B582B096
:4009000000AF72B63E4A3E4B1B78DBB243F00403DBB213700023FB7113E0FA7913465B0013445B00374A13443B603B681A683B689B889BB219461046FFF7CAFEFB79013344
:40094000FB71FB79062BE8D92F494FF09040FFF7E3FE2E4A2D4B1B78DBB243F00203DBB213702B4A2A4B1B78DBB243F00203DBB21370284A274B1B78DBB243F04003DBB296
:400980001370254A244B1B78DBB243F01003DBB213700A2221492248FFF7A8FE082221492148FFF7A3FE082220492148FFF79EFE0A2220492048FFF799FE0A221F4920481C
:4009C000FFF794FE1F4A1F4B1B78DBB243F00803DBB213701C4B61221A70FFF7D7FE1A4B81221A70194B01221A70FFF765FF0E2208491748FFF77AFE00BF0837BD4680BD66
:400A0000E8460040C01D0000540000480350014013500140A0430040C24300404C040048C051004058040048F25100406004004812510040680400482051004074040048AB
:400A400060510040224300400048004004000840B043004080B500AF00F0DEFC03461B680C2B00D1FEE7FEE780B584B000AF78600F4B1A687B6813441A460E4BD31A802B36
:400A800009DC0B4B1B68FB60094B1A687B681344074A136007E000F0BFFC02460C2313604FF0FF33FB60FB6818461037BD4680BDD080FF1FF881FF1F80B586B000AF224B2D
:400AC0007B61224B3B61204B7B6135E03B691B68FB603B695B68BB603B699B683B6000237B600CE0FB681A68BB681A60BB680433BB60FB680433FB607B6804337B607A68C2
:400B00003B689A42EED13B69DB683B6000237B6008E0BB6800221A60BB680433BB607B6804337B607A683B689A42F2D13B6910333B617B69013B7B617B69002BC6D100F0AD
:400B400071FCFFF719FBFEE701000000441E000080B582B000AF184B184A1A60184A184B1B6843F40073136000237B600FE07B68032B04D8134A7B6852F8233000E0124B08
:400B800012497A6841F822307B6801337B607B682F2BECD90E4B1B78DAB20E4B1A700E4B0A4A1A60FFF7AAFE0C4B00221A6000BF0837BD4680BD00BF0CED00E00004FA058D
:400BC00014ED00E000000000550A00000080FF1FBC760040C480FF1F08ED00E0C080FF1F80B500AF064B1B78002B04D100F00AF8034B01221A7000F051F800BF80BD00BF67
:400C0000E481FF1F80B582B000AF204B1B78DBB223F03F03FB711D4AFB7943F01203DBB213701B4A1A4B1B78DBB243F00103DBB21370184A174B1B78DBB243F00103DBB2C3
:400C400013704FF47A7000F039F84FF47A7000F053F8642000F060F8002000F06DF800F0D3FB0346BB710C4A0B4B1B78DBB243F01003DBB21370BB79184600F0C9FB00F06F
:400C80002DF800BF0837BD4680BD00BF7E6400409C6400409D6400409E64004080B400AF054A054B1B78DBB263F07F03DBB2137000BFBD4680BC70477E64004080B483B068
:400CC00000AF0346FB80044AFB88138000BF0C37BD4680BC704700BF1868004080B500AF01E000F045F800F037F8034603F01003002BF6D100BF80BD80B483B000AF0346F9
:400D0000FB80044AFB88138000BF0C37BD4680BC704700BF9868004080B483B000AF0346FB80044AFB88138000BF0C37BD4680BC704700BF5868004080B483B000AF034689
:400D4000FB71044AFB79137000BF0C37BD4680BC704700BF8E64004080B400AF034B1B78DBB21846BD4680BC704700BF6E64004080B400AF034B1B889BB21846BD4680BCA5
:400D8000704700BFB868004080B582B000AF786000F03CF8786800F009F8072000F018F800F028F800BF0837BD4680BD80B485B000AF7860054B1B68FB60FB6844337A682B
:400DC0001A6000BF1437BD4680BC704708ED00E080B483B000AF0346FB71054AFB795B01DBB2137000BF0C37BD4680BC704700BF01E400E080B400AF034B02221A6000BFA0
:400E0000BD4680BC704700BF00E100E080B400AF034B02221A6000BFBD4680BC704700BF80E100E080B485B000AF0346FB710B4B1B78DBB223F02003FB730849FB795B01B0
:400E4000DBB203F02003DAB2FB7B1343DBB20B7000BF1437BD4680BC704700BFF051004080B485B000AF0346FB710B4B1B78DBB223F01003FB730849FB791B01DBB203F0F7
:400E80001003DAB2FB7B1343DBB20B7000BF1437BD4680BC704700BFF051004080B582B000AF786000F03CF8786800F009F8072000F018F800F028F800BF0837BD4680BD27
:400EC00080B485B000AF7860054B1B68FB60FB6840337A681A6000BF1437BD4680BC704708ED00E080B483B000AF0346FB71054AFB795B01DBB2137000BF0C37BD4680BC92
:400F0000704700BF00E400E080B400AF034B01221A6000BFBD4680BC704700BF00E100E080B400AF034B01221A6000BFBD4680BC704700BF80E100E080B582B000AF786003
:400F400000F03CF8786800F009F8072000F018F800F028F800BF0837BD4680BD80B485B000AF7860054B1B68FB60FB6868337A681A6000BF1437BD4680BC704708ED00E0BA
:400F800080B483B000AF0346FB71054AFB795B01DBB2137000BF0C37BD4680BC704700BF0AE400E080B400AF034B4FF480621A6000BFBD4680BC704700E100E080B400AF89
:400FC000034B4FF480621A6000BFBD4680BC704780E100E080B400AF034B4FF480621A6000BFBD4680BC704780E200E080B400AF054B1B78DBB203F020035B09DBB218468F
:40100000BD4680BC704700BF8645004080B500AF064B1B78002B04D100F00AF8034B01221A7000F025F800BF80BD00BFE581FF1F80B400AF094B72221A70094B20221A707A
:40104000084B06221A70084B47221A70074B00221A7000BFBD4680BC704700BF8C6400408B6400402A6400403A6400408A64004080B582B000AF00F0C7F90346FB71114AA4
:40108000104B1B78DBB243F02003DBB213700E4A0D4B1B78DBB243F01003DBB213700B4A0A4B1B78DBB243F01003DBB2137000F077F9FB79184600F0ABF900BF0837BD4642
:4010C00080BD00BF9C6400409B6400409A64004080B483B000AF0023FB710C4B1B78BB71BB7903F02003002B09D0094B1B78FB71BB7903F01E03002B01D00023FB71FB7994
:4011000018460C37BD4680BC704700BF6B6400404F64004080B483B000AF0346FB7100BF074B1B78DBB203F00403002BF8D1054AFB79137000BF0C37BD4680BC704700BF70
:401140006A6400404B64004080B584B000AF78600023FB810C4B1B78002B10D009E0FB897A6813441B781846FFF7D4FFFB890133FB81FB897A6813441B78002BEFD100BF60
:401180001037BD4680BD00BFE581FF1F80B485B000AF0346FB710B4B1B78DBB223F01003FB730849FB791B01DBB203F01003DAB2FB7B1343DBB20B7000BF1437BD4680BC71
:4011C000704700BFC051004080B485B000AF0346FB710B4B1B78DBB223F02003FB730849FB795B01DBB203F02003DAB2FB7B1343DBB20B7000BF1437BD4680BC704700BF5E
:40120000C051004080B485B000AF0346FB710B4B1B78DBB223F01003FB730849FB791B01DBB203F01003DAB2FB7B1343DBB20B7000BF1437BD4680BC704700BF6051004002
:4012400080B485B000AF0346FB71094B1B78DBB203F07F03FB730649FB79DB01DAB2FB7B1343DBB20B7000BF1437BD4680BC70472051004080B485B000AF0346FB710B4B77
:401280001B78DBB223F00403FB730849FB799B00DBB203F00403DAB2FB7B1343DBB20B7000BF1437BD4680BC704700BF6051004080B485B000AF0346FB710B4B1B78DBB24C
:4012C00023F00803FB730849FB79DB00DBB203F00803DAB2FB7B1343DBB20B7000BF1437BD4680BC704700BF6051004080B485B000AF0346FB710B4B1B78DBB223F01003BE
:40130000FB730849FB791B01DBB203F01003DAB2FB7B1343DBB20B7000BF1437BD4680BC704700BF2051004080B485B000AF0346FB710B4B1B78DBB223F02003FB730849C3
:40134000FB795B01DBB203F02003DAB2FB7B1343DBB20B7000BF1437BD4680BC704700BF2051004080B485B000AF0346FB710B4B1B78DBB223F04003FB730849FB799B01C2
:40138000DBB203F04003DAB2FB7B1343DBB20B7000BF1437BD4680BC704700BF2051004080B400AF094A094B1B78DBB243F00103DBB21370064A064B1B78DBB243F00103B1
:4013C000DBB2137000BFBD4680BC7047A2430040B243004080B400AF054A054B1B78DBB243F00103DBB2137000BFBD4680BC7047F6460040000000000230800803D000BF68
:4014000001380046FCD17047EFF3108072B6704780F31088704700BF014B1868704700BF3481FF1F0E4B70B51E460E4C0025E41AA410A54204D056F8253098470135F8E75D
:4014400000F0EEFC084B094C1E46E41AA4100025A54204D056F8253098470135F8E770BD2C1E00002C1E00002C1E0000341E000010B5431E0A44914204D011F8014B03F895
:40148000014FF8E710BD03460244934202D003F8011BFAE7704700000EB400B54FF402719CB0ADF814106FF00041049107914FF6FF711DAB02900690084853F8042BADF828
:4014C0001610006802A9019300F064F8029B00221A701CB05DF804EB03B070473481FF1F2DE9F0478E6882469E420C46914698463ED88A8912F4906F3AD0256809690223EF
:401500006F1A656905EB450595FBF3F57B1C43449D4238BF1D4653050FD5294600F040FB064698B13A462169FFF7A2FFA38923F4906343F08003A38113E02A4600F08EFB53
:40154000064670B92169504600F0DEFA0C23CAF80030A3894FF0FF3043F04003A381BDE8F08726613E44266046466561ED1BA560464528BF464649463246206800F0A8FA90
:40158000A36800209B1BA36023681E442660BDE8F08700002DE9F04F9DB003938B8980461C060D4616460DD50B695BB9402100F0F7FA2860286118B90C23C8F80030CDE07B
:4015C00040236B610023099320238DF82930DFF89CB130238DF82A3037463C4614F8013B1BB9B7EB060910D003E0252BF9D02746F3E74B46324629464046FFF771FF013002
:4016000000F0A780099B4B4409933B78002B00F0A08000234FF0FF3204930793059206938DF853301A930126052221784E4800F041FA671C049B38B14B4A3C46801A06FAC9
:4016400000F018430490EFE7D90644BF20228DF853201A0744BF2B228DF8532022782A2A03D0079A00210A200BE0039A111D12680391002A10DA524243F0020007920490B5
:401680000BE027463B780134303B092B03D800FB02320121F5E701B107923B782E2B1ED17B782A2B0AD1039B02371A1D1B680392002BB8BF4FF0FF33059310E00023194697
:4016C0000593781C0A2407463A780130303A092A03D804FB01210123F5E703B1059103223978224800F0E6F940B14023CBEB000003FA00F0049B01371843049039780622D8
:401700001B487E1C8DF8281000F0D4F988B1194B33B9039B073323F007030833039314E003AB00932A46144B04A94046AFF3008007E003AB00932A460F4B04A9404600F075
:4017400093F8B0F1FF3F824603D0099B5344099342E7AB895B0601D4099801E04FF0FF301DB0BDE8F08F00BFEC1D0000F21D0000F61D000000000000E11400002DE9F047ED
:4017800091461F460A698B6806469342B8BF1346C9F8003091F843200C46DDF8208012B10133C9F800302368990642BFD9F800300233C9F80030256815F0060510D104F145
:4017C000190A07E00123524639463046C04701301AD00135E368D9F800209B1A9D42F1DB94F843302268003318BF012392060FD5E118302081F843005A1C94F84510224445
:40180000023382F8431003E04FF0FF30BDE8F08704F1430239463046C0470130F4D02268D9F80050E36802F00602042A08BF5D1B2269A3680CBF25EAE57500259342C4BF6A
:401840009B1AED184FF000091A344D4509D00123224639463046C0470130D5D009F10109F3E70020BDE8F0872DE9F04317460A7E85B06E2A984606460C460C9B01F1430ED4
:4018800000F0AE8011D8632A22D009D8002A00F0BB80582A40F0CA8081F84520834955E0642A1ED0692A1CD0C0E0732A00F0B08009D86F2A2ED0702A40F0B8800A6842F01B
:4018C00020020A603EE0752A24D0782A3AD0ADE01A6801F14205111D1960136884F84230A8E021681A6811F0800F02D0111D196008E011F0400F02F10401196002D0B2F9E5
:40190000003000E01368002B3CDA2D225B4284F8432037E021681A6811F0800F02D0111D196007E011F0400F02F10401196001D0138800E01368227E5C496F2A14BF0A2299
:4019400008221BE078225A4984F845202268186812F0800F00F104051D6003D1550601D5038800E00368D00744BF42F0200222601BB9226822F0200222601022002084F8A5
:40198000430001E049490A226568002DA56008DB206820F0040020602BB9002D7DD175460CE0002B79D07546B3FBF2F002FB1033CB5C05F8013D03460028F5D1082A0BD19B
:4019C0002368DA0708D5236962689A42DEBF302305F8013C05F1FF35C5EB0E0323612EE008681A6810F0800F496903D0101D1860136808E010F0400F02F10400186013687E
:401A000001D0198000E0196000232361754616E01A68111D1960156800216268284600F049F808B1401B6060636804E004F1420584F8422001232361002384F84330CDF83F
:401A400000803B4603AA21463046FFF797FE013002D14FF0FF3026E023692A4639463046C0470130F5D023689B0710D5002504F1190907E001234A4639463046C0470130D4
:401A8000E7D00135E368039A9B1A9D42F2DBE068039B9842B8BF184605E00B7804F1420584F842308AE705B0BDE8F083FD1D00000E1E000010B5C9B202449042034605D0CF
:401AC0001C7801308C42F8D1184610BD002010BD884210B501EB020301D8421E0BE09842FBD28118D21AD34204D013F8014D01F8014DF8E710BD994204D011F8014B02F86F
:401B0000014FF8E710BD000038B50546002944D051F8043C0C1F002BB8BFE41800F0D4F81E4A1368114613B96360146030E0A3420DD92268A018834201BF18685B681218DA
:401B4000226063600C6023E0A24203D813465A68002AF9D118681918A1420BD12168014458188242196013D110685268014419605A600DE002D90C232B6009E021686018FE
:401B8000824201BF106852680918216062605C602846BDE8384000F098B838BDEC81FF1F70B5CD1C25F0030508350C2D38BF0C25002D064601DBA94202D90C23336046E038
:401BC00000F082F8234B1C681A462146A1B10B685B1B0ED40B2B03D90B60CC18CD501EE08C420BBF63684B681360636018BF0C4615E00C464968E9E7174C23681BB93046B4
:401C000000F052F820602946304600F04DF8431C18D0C41C24F00304A0420DD12560304600F053F804F10B00231D20F00700C31A0ED05A42E25070BD211A304600F034F8BE
:401C40000130EBD10C233360304600F03EF8002070BD00BFEC81FF1FE881FF1FF8B5074615460E4621B91146BDE8F840FFF798BF1AB9FFF749FF2846F8BD00F027F88542ED
:401C80000ED929463846FFF78BFF044650B131462A46FFF7EDFB31463846FFF735FF01E03046F8BD2046F8BD38B5064C0023054608462360FEF7D8FE431C02D1236803B1C0
:401CC0002B6038BDF081FF1F7047704751F8040C0028BEBF091851F8043CC01804387047000000004D50535F5732325F5072616B745F332C2046726565536F43322C205056
:401D0000536F4320354C502C207665722E20312E300A0D496E676F204B6E69746F20756E642041726E6F204E796D202854656D706C617465204D50532033292C204465639B
:401D400020313220323032322031363A32353A30320000000A0D57656C636F6D65212025730A0D000A0D48656C703A0A0D09682C483A2068656C700A0D09633A20636C6579
:401D800061722073637265656E0A0D09712C513A20736F6674776172652072657365740A0D0000001B5B324A1B5B48006272696768746E6573733A202564200A000000008D
:401DC00000510040100030510040300000000140001000140140000800400140000A004C014000020050014020004300232D302B2000686C4C006566674546470030313213
:401E00003334353637383941424344454600303132333435363738396162636465660000F8B500BFF8BC08BC9E4670474D000000510B0000F8B500BFF8BC08BC9E4670478A
:401E400029000000581E0000C880FF1F70000000C000000000000000000000002C010000F881FF1F0000000000000000000000000000000000000000000000000000000069
:401E800000000000EA1D000000000000000000000000000000000000000000000000000000000000000000000000000000000000000000000000000000000000000000001B
:401EC00000000000D480FF1F000000000000000000000000000000000000000000000000000000000000000000000000000000000000000000000000000000000000000070
:401F000000000000000000000000000000000000000000000000000000000000000000000000000000000000000000000000000000000000000000000000000000000000A1
:401F40000000000000000000000000000000000000000000000000000000000000000000000000000000000000000000000000000000000000000000000000000000000061
:401F80000000000000000000000000000000000000000000000000000000000000000000000000000000000000000000000000000000000000000000000000000000000021
:401FC00000000000000000000000000000000000000000000000000000000000000000000000000000000000000000000000000000000000000000000000000000000000E1
:020000040003F7
:0200000480007A
:4000000001450040025200400464004001050140040901405C0A01404A0B0140620C0140470D0140510E0140340F014003400140024101400442014001430140014401402A
:4000400008450140024601400348014003500140015101403502110214018A0F8B388C728E0DE208AC10AD80B010B1800003020404130503060C0C0A0D020E1413011608EB
:40008000281329032A042C202D042E0532303304340F3503380839203A203F144002470449FF4A074BFF4C404D204EF04F0550085401580459045A045B045F01604061A87A
:4000C0006240632082208409853B86108830893B8A0C8C1C8E2291109328941099229A039B11A109A220A316A42CA611A814B220B303B41FB504B738BE04C065C102C60C01
:40010000C7EBC834C9FFCAFFCBFFCEF0CF44D00CD418D604D804D904DA04DB04DF01E6C0EA40EB020040024003200440052806400A200C080E0810021204150A16081928DA
:400140001A201B201C281E0820042204242026202711280129202B022D0230023711384839083A043E14400446044C024D20500A5103558056485702581159805A085E0234
:40018000678A87408D108F01904892149308942099129D289F01A201A40CA502A620B102B301B684C0FDC264C473CA8CCCA1CE6AD024D230D68FD8B001100213040C0508E1
:4001C0000613080209FF0C080FE6100F11C01210141F151818131A0C1B011C011DE71F182003214124042580280C29392BC42D192FE2301C31C0331F340F35383A2A3B0880
:400200004060410249FF4AFF4BFF4DA04F04501856025711580459045A045B045D015F01604062C06440654066C068C06AC06CC06EC0861C88018A168C1C8E039203980155
:400240009A0EAA08B00FB41ABA22C030C106C5D1C702C817C9FFCAFFCBFFCDAFCE0FCF04D018D804DA04DD01DF01E040E2C0E440E540E6C0E8C0EAC0ECC0EEC00040012819
:4002800004220621071009020A080D080E480F021008172518481A081C201D081E4824042601271028202B102D022E602F10350436A0370138203B203C203D803E0A4020E4
:4002C0004604482049014A084F20524C5E206E146F2A7504760B7724900293089424964099109D039E449F11A140A210A310A434A604A72AA810C0F7C2FAC472CAF0CCF06F
:40030000CEF0D022D224D620EC010A0E12011B02201022042410250326082A022F01300232103401360C370338083E0152805405580459045B045C115D105F018202850482
:40034000860889028A028D0292109502961099029A019E08A204A401A501A801A901AD01AE01B001B210B304B408B502B606B701B802BE54BF14C035C102C206C401C5C073
:40038000C70EC812C9FFCAFFCBFFCC62CDA0CEF0CF41D00CD804D904DA04DF01E640E702E910EA30EB10ED10EE10EF120120042C050209020C180E800F021020124415504D
:4003C0001705184019A81B101D901E801F04224024122540261029082A402F2A30203410360437143C283D703E40459047044C054F025408580859015A80710285808C4862
:40040000C072C2F8C4FECA7ACC64CE70D070D230D60BE00833403580CC309D809F4085809D809F40E2109F40864000025240588098809A40A880C008D405B001EA0127406F
:400440009F40C88000030C010E03000F3000003030000000000000000030300000000000000B0B0000000000FE0001FEFE000600000000003F00003F1C0000000000000084
:40048000000000000000000000000000000000000000000000000000000000000000000000000000000000000000000000000000000000000000000000000000000000003C
:4004C00000000000000000000000000000000000000000000000000000000000000000000000000000000000000000000000000000000000000000000000000000000000FC
:4005000000000000000000000000000000000000000000000000000000000000000000000000000000000000000000000000000000000000000000000000000000000000BB
:40054000000000000000000000000000000000000000000000000000000000000000000000000000000000000000000000000000000000000000000000000000000000007B
:0200000490006A
:0400000000004005B7
:0200000490105A
:04000000BC90ACAF55
:0200000490303A
:02000000746228
:0200000490402A
:4000000000000000000000000000000000000000000000000000000000000000000000000000000000000000000000000000000000000000000000000000000000000000C0
:400040000000000000000000000000000000000000000000000000000000000000000000000000000000000000000000000000000000000000000000000000000000000080
:400080000000000000000000000000000000000000000000000000000000000000000000000000000000000000000000000000000000000000000000000000000000000040
:4000C0000000000000000000000000000000000000000000000000000000000000000000000000000000000000000000000000000000000000000000000000000000000000
:0200000490501A
:0C00000000012E16006900012E2274CBB6
:00000001FF